{
  "_format": "hh-sol-artifact-1",
  "contractName": "ChainOfHope",
  "sourceName": "contracts/ChainOfHope.sol",
  "abi": [
    {
      "anonymous": false,
      "inputs": [
        {
          "indexed": false,
          "internalType": "uint256",
          "name": "donorId",
          "type": "uint256"
        },
        {
          "indexed": false,
          "internalType": "string",
          "name": "name",
          "type": "string"
        },
        {
          "indexed": false,
          "internalType": "string",
          "name": "bloodType",
          "type": "string"
        },
        {
          "indexed": false,
          "internalType": "string",
          "name": "reportUrl",
          "type": "string"
        }
      ],
      "name": "BloodDonorRegistered",
      "type": "event"
    },
    {
      "anonymous": false,
      "inputs": [
        {
          "indexed": false,
          "internalType": "uint256",
          "name": "donorId",
          "type": "uint256"
        },
        {
          "indexed": false,
          "internalType": "uint256",
          "name": "recipientId",
          "type": "uint256"
        }
      ],
      "name": "BloodMatchFound",
      "type": "event"
    },
    {
      "anonymous": false,
      "inputs": [
        {
          "indexed": false,
          "internalType": "uint256",
          "name": "recipientId",
          "type": "uint256"
        },
        {
          "indexed": false,
          "internalType": "string",
          "name": "name",
          "type": "string"
        },
        {
          "indexed": false,
          "internalType": "string",
          "name": "bloodType",
          "type": "string"
        }
      ],
      "name": "BloodRecipientRegistered",
      "type": "event"
    },
    {
      "anonymous": false,
      "inputs": [
        {
          "indexed": false,
          "internalType": "uint256",
          "name": "donorId",
          "type": "uint256"
        },
        {
          "indexed": false,
          "internalType": "string",
          "name": "name",
          "type": "string"
        },
        {
          "indexed": false,
          "internalType": "string",
          "name": "bloodType",
          "type": "string"
        },
        {
          "indexed": false,
          "internalType": "string",
          "name": "organ",
          "type": "string"
        },
        {
          "indexed": false,
          "internalType": "string",
          "name": "reportUrl",
          "type": "string"
        }
      ],
      "name": "DonorRegistered",
      "type": "event"
    },
    {
      "anonymous": false,
      "inputs": [
        {
          "indexed": false,
          "internalType": "uint256",
          "name": "donorId",
          "type": "uint256"
        },
        {
          "indexed": false,
          "internalType": "uint256",
          "name": "recipientId",
          "type": "uint256"
        }
      ],
      "name": "MatchFound",
      "type": "event"
    },
    {
      "anonymous": false,
      "inputs": [
        {
          "indexed": false,
          "internalType": "uint256",
          "name": "recipientId",
          "type": "uint256"
        },
        {
          "indexed": false,
          "internalType": "string",
          "name": "name",
          "type": "string"
        },
        {
          "indexed": false,
          "internalType": "string",
          "name": "bloodType",
          "type": "string"
        },
        {
          "indexed": false,
          "internalType": "string",
          "name": "organ",
          "type": "string"
        }
      ],
      "name": "RecipientRegistered",
      "type": "event"
    },
    {
      "inputs": [],
      "name": "bloodDonorCount",
      "outputs": [
        {
          "internalType": "uint256",
          "name": "",
          "type": "uint256"
        }
      ],
      "stateMutability": "view",
      "type": "function"
    },
    {
      "inputs": [
        {
          "internalType": "uint256",
          "name": "",
          "type": "uint256"
        }
      ],
      "name": "bloodDonors",
      "outputs": [
        {
          "internalType": "uint256",
          "name": "id",
          "type": "uint256"
        },
        {
          "internalType": "string",
          "name": "name",
          "type": "string"
        },
        {
          "internalType": "string",
          "name": "bloodType",
          "type": "string"
        },
        {
          "internalType": "uint256",
          "name": "age",
          "type": "uint256"
        },
        {
          "internalType": "string",
          "name": "reportUrl",
          "type": "string"
        },
        {
          "internalType": "bool",
          "name": "registered",
          "type": "bool"
        },
        {
          "internalType": "bool",
          "name": "matched",
          "type": "bool"
        }
      ],
      "stateMutability": "view",
      "type": "function"
    },
    {
      "inputs": [],
      "name": "bloodMatchCount",
      "outputs": [
        {
          "internalType": "uint256",
          "name": "",
          "type": "uint256"
        }
      ],
      "stateMutability": "view",
      "type": "function"
    },
    {
      "inputs": [
        {
          "internalType": "uint256",
          "name": "",
          "type": "uint256"
        }
      ],
      "name": "bloodMatches",
      "outputs": [
        {
          "internalType": "uint256",
          "name": "donorId",
          "type": "uint256"
        },
        {
          "internalType": "uint256",
          "name": "recipientId",
          "type": "uint256"
        },
        {
          "internalType": "uint256",
          "name": "timestamp",
          "type": "uint256"
        }
      ],
      "stateMutability": "view",
      "type": "function"
    },
    {
      "inputs": [],
      "name": "bloodRecipientCount",
      "outputs": [
        {
          "internalType": "uint256",
          "name": "",
          "type": "uint256"
        }
      ],
      "stateMutability": "view",
      "type": "function"
    },
    {
      "inputs": [
        {
          "internalType": "uint256",
          "name": "",
          "type": "uint256"
        }
      ],
      "name": "bloodRecipients",
      "outputs": [
        {
          "internalType": "uint256",
          "name": "id",
          "type": "uint256"
        },
        {
          "internalType": "string",
          "name": "name",
          "type": "string"
        },
        {
          "internalType": "string",
          "name": "bloodType",
          "type": "string"
        },
        {
          "internalType": "bool",
          "name": "registered",
          "type": "bool"
        },
        {
          "internalType": "bool",
          "name": "matched",
          "type": "bool"
        }
      ],
      "stateMutability": "view",
      "type": "function"
    },
    {
      "inputs": [],
      "name": "donorCount",
      "outputs": [
        {
          "internalType": "uint256",
          "name": "",
          "type": "uint256"
        }
      ],
      "stateMutability": "view",
      "type": "function"
    },
    {
      "inputs": [
        {
          "internalType": "uint256",
          "name": "",
          "type": "uint256"
        }
      ],
      "name": "donors",
      "outputs": [
        {
          "internalType": "uint256",
          "name": "id",
          "type": "uint256"
        },
        {
          "internalType": "string",
          "name": "name",
          "type": "string"
        },
        {
          "internalType": "string",
          "name": "bloodType",
          "type": "string"
        },
        {
          "internalType": "string",
          "name": "organ",
          "type": "string"
        },
        {
          "internalType": "uint256",
          "name": "age",
          "type": "uint256"
        },
        {
          "internalType": "string",
          "name": "reportUrl",
          "type": "string"
        },
        {
          "internalType": "bool",
          "name": "registered",
          "type": "bool"
        },
        {
          "internalType": "bool",
          "name": "matched",
          "type": "bool"
        }
      ],
      "stateMutability": "view",
      "type": "function"
    },
    {
      "inputs": [
        {
          "internalType": "uint256",
          "name": "donorId",
          "type": "uint256"
        },
        {
          "internalType": "uint256",
          "name": "recipientId",
          "type": "uint256"
        }
      ],
      "name": "finalizeBloodMatch",
      "outputs": [],
      "stateMutability": "nonpayable",
      "type": "function"
    },
    {
      "inputs": [
        {
          "internalType": "uint256",
          "name": "donorId",
          "type": "uint256"
        },
        {
          "internalType": "uint256",
          "name": "recipientId",
          "type": "uint256"
        }
      ],
      "name": "finalizeMatch",
      "outputs": [],
      "stateMutability": "nonpayable",
      "type": "function"
    },
    {
      "inputs": [
        {
          "internalType": "uint256",
          "name": "recipientId",
          "type": "uint256"
        }
      ],
      "name": "findBloodMatchesForRecipient",
      "outputs": [
        {
          "components": [
            {
              "internalType": "uint256",
              "name": "id",
              "type": "uint256"
            },
            {
              "internalType": "string",
              "name": "name",
              "type": "string"
            },
            {
              "internalType": "string",
              "name": "bloodType",
              "type": "string"
            },
            {
              "internalType": "uint256",
              "name": "age",
              "type": "uint256"
            },
            {
              "internalType": "string",
              "name": "reportUrl",
              "type": "string"
            },
            {
              "internalType": "bool",
              "name": "registered",
              "type": "bool"
            },
            {
              "internalType": "bool",
              "name": "matched",
              "type": "bool"
            }
          ],
          "internalType": "struct ChainOfHope.BloodDonor[]",
          "name": "",
          "type": "tuple[]"
        }
      ],
      "stateMutability": "view",
      "type": "function"
    },
    {
      "inputs": [
        {
          "internalType": "uint256",
          "name": "recipientId",
          "type": "uint256"
        }
      ],
      "name": "findMatchesForRecipient",
      "outputs": [
        {
          "components": [
            {
              "internalType": "uint256",
              "name": "id",
              "type": "uint256"
            },
            {
              "internalType": "string",
              "name": "name",
              "type": "string"
            },
            {
              "internalType": "string",
              "name": "bloodType",
              "type": "string"
            },
            {
              "internalType": "string",
              "name": "organ",
              "type": "string"
            },
            {
              "internalType": "uint256",
              "name": "age",
              "type": "uint256"
            },
            {
              "internalType": "string",
              "name": "reportUrl",
              "type": "string"
            },
            {
              "internalType": "bool",
              "name": "registered",
              "type": "bool"
            },
            {
              "internalType": "bool",
              "name": "matched",
              "type": "bool"
            }
          ],
          "internalType": "struct ChainOfHope.Donor[]",
          "name": "",
          "type": "tuple[]"
        }
      ],
      "stateMutability": "view",
      "type": "function"
    },
    {
      "inputs": [],
      "name": "getAllBloodDonors",
      "outputs": [
        {
          "components": [
            {
              "internalType": "uint256",
              "name": "id",
              "type": "uint256"
            },
            {
              "internalType": "string",
              "name": "name",
              "type": "string"
            },
            {
              "internalType": "string",
              "name": "bloodType",
              "type": "string"
            },
            {
              "internalType": "uint256",
              "name": "age",
              "type": "uint256"
            },
            {
              "internalType": "string",
              "name": "reportUrl",
              "type": "string"
            },
            {
              "internalType": "bool",
              "name": "registered",
              "type": "bool"
            },
            {
              "internalType": "bool",
              "name": "matched",
              "type": "bool"
            }
          ],
          "internalType": "struct ChainOfHope.BloodDonor[]",
          "name": "",
          "type": "tuple[]"
        }
      ],
      "stateMutability": "view",
      "type": "function"
    },
    {
      "inputs": [],
      "name": "getAllBloodMatches",
      "outputs": [
        {
          "components": [
            {
              "internalType": "uint256",
              "name": "donorId",
              "type": "uint256"
            },
            {
              "internalType": "uint256",
              "name": "recipientId",
              "type": "uint256"
            },
            {
              "internalType": "uint256",
              "name": "timestamp",
              "type": "uint256"
            }
          ],
          "internalType": "struct ChainOfHope.BloodMatch[]",
          "name": "",
          "type": "tuple[]"
        }
      ],
      "stateMutability": "view",
      "type": "function"
    },
    {
      "inputs": [],
      "name": "getAllBloodRecipients",
      "outputs": [
        {
          "components": [
            {
              "internalType": "uint256",
              "name": "id",
              "type": "uint256"
            },
            {
              "internalType": "string",
              "name": "name",
              "type": "string"
            },
            {
              "internalType": "string",
              "name": "bloodType",
              "type": "string"
            },
            {
              "internalType": "bool",
              "name": "registered",
              "type": "bool"
            },
            {
              "internalType": "bool",
              "name": "matched",
              "type": "bool"
            }
          ],
          "internalType": "struct ChainOfHope.BloodRecipient[]",
          "name": "",
          "type": "tuple[]"
        }
      ],
      "stateMutability": "view",
      "type": "function"
    },
    {
      "inputs": [],
      "name": "getAllDonors",
      "outputs": [
        {
          "components": [
            {
              "internalType": "uint256",
              "name": "id",
              "type": "uint256"
            },
            {
              "internalType": "string",
              "name": "name",
              "type": "string"
            },
            {
              "internalType": "string",
              "name": "bloodType",
              "type": "string"
            },
            {
              "internalType": "string",
              "name": "organ",
              "type": "string"
            },
            {
              "internalType": "uint256",
              "name": "age",
              "type": "uint256"
            },
            {
              "internalType": "string",
              "name": "reportUrl",
              "type": "string"
            },
            {
              "internalType": "bool",
              "name": "registered",
              "type": "bool"
            },
            {
              "internalType": "bool",
              "name": "matched",
              "type": "bool"
            }
          ],
          "internalType": "struct ChainOfHope.Donor[]",
          "name": "",
          "type": "tuple[]"
        }
      ],
      "stateMutability": "view",
      "type": "function"
    },
    {
      "inputs": [],
      "name": "getAllMatches",
      "outputs": [
        {
          "components": [
            {
              "internalType": "uint256",
              "name": "donorId",
              "type": "uint256"
            },
            {
              "internalType": "uint256",
              "name": "recipientId",
              "type": "uint256"
            },
            {
              "internalType": "uint256",
              "name": "timestamp",
              "type": "uint256"
            }
          ],
          "internalType": "struct ChainOfHope.Match[]",
          "name": "",
          "type": "tuple[]"
        }
      ],
      "stateMutability": "view",
      "type": "function"
    },
    {
      "inputs": [],
      "name": "getAllRecipients",
      "outputs": [
        {
          "components": [
            {
              "internalType": "uint256",
              "name": "id",
              "type": "uint256"
            },
            {
              "internalType": "string",
              "name": "name",
              "type": "string"
            },
            {
              "internalType": "string",
              "name": "bloodType",
              "type": "string"
            },
            {
              "internalType": "string",
              "name": "organ",
              "type": "string"
            },
            {
              "internalType": "bool",
              "name": "registered",
              "type": "bool"
            },
            {
              "internalType": "bool",
              "name": "matched",
              "type": "bool"
            }
          ],
          "internalType": "struct ChainOfHope.Recipient[]",
          "name": "",
          "type": "tuple[]"
        }
      ],
      "stateMutability": "view",
      "type": "function"
    },
    {
      "inputs": [
        {
          "internalType": "string",
          "name": "donor",
          "type": "string"
        },
        {
          "internalType": "string",
          "name": "recipient",
          "type": "string"
        }
      ],
      "name": "isBloodCompatible",
      "outputs": [
        {
          "internalType": "bool",
          "name": "",
          "type": "bool"
        }
      ],
      "stateMutability": "pure",
      "type": "function"
    },
    {
      "inputs": [],
      "name": "matchCount",
      "outputs": [
        {
          "internalType": "uint256",
          "name": "",
          "type": "uint256"
        }
      ],
      "stateMutability": "view",
      "type": "function"
    },
    {
      "inputs": [
        {
          "internalType": "uint256",
          "name": "",
          "type": "uint256"
        }
      ],
      "name": "matches",
      "outputs": [
        {
          "internalType": "uint256",
          "name": "donorId",
          "type": "uint256"
        },
        {
          "internalType": "uint256",
          "name": "recipientId",
          "type": "uint256"
        },
        {
          "internalType": "uint256",
          "name": "timestamp",
          "type": "uint256"
        }
      ],
      "stateMutability": "view",
      "type": "function"
    },
    {
      "inputs": [],
      "name": "recipientCount",
      "outputs": [
        {
          "internalType": "uint256",
          "name": "",
          "type": "uint256"
        }
      ],
      "stateMutability": "view",
      "type": "function"
    },
    {
      "inputs": [
        {
          "internalType": "uint256",
          "name": "",
          "type": "uint256"
        }
      ],
      "name": "recipients",
      "outputs": [
        {
          "internalType": "uint256",
          "name": "id",
          "type": "uint256"
        },
        {
          "internalType": "string",
          "name": "name",
          "type": "string"
        },
        {
          "internalType": "string",
          "name": "bloodType",
          "type": "string"
        },
        {
          "internalType": "string",
          "name": "organ",
          "type": "string"
        },
        {
          "internalType": "bool",
          "name": "registered",
          "type": "bool"
        },
        {
          "internalType": "bool",
          "name": "matched",
          "type": "bool"
        }
      ],
      "stateMutability": "view",
      "type": "function"
    },
    {
      "inputs": [
        {
          "internalType": "string",
          "name": "_name",
          "type": "string"
        },
        {
          "internalType": "string",
          "name": "_bloodType",
          "type": "string"
        },
        {
          "internalType": "uint256",
          "name": "_age",
          "type": "uint256"
        },
        {
          "internalType": "string",
          "name": "_reportUrl",
          "type": "string"
        }
      ],
      "name": "registerBloodDonor",
      "outputs": [],
      "stateMutability": "nonpayable",
      "type": "function"
    },
    {
      "inputs": [
        {
          "internalType": "string",
          "name": "_name",
          "type": "string"
        },
        {
          "internalType": "string",
          "name": "_bloodType",
          "type": "string"
        }
      ],
      "name": "registerBloodRecipient",
      "outputs": [],
      "stateMutability": "nonpayable",
      "type": "function"
    },
    {
      "inputs": [
        {
          "internalType": "string",
          "name": "_name",
          "type": "string"
        },
        {
          "internalType": "string",
          "name": "_bloodType",
          "type": "string"
        },
        {
          "internalType": "string",
          "name": "_organ",
          "type": "string"
        },
        {
          "internalType": "uint256",
          "name": "_age",
          "type": "uint256"
        },
        {
          "internalType": "string",
          "name": "_reportUrl",
          "type": "string"
        }
      ],
      "name": "registerDonor",
      "outputs": [],
      "stateMutability": "nonpayable",
      "type": "function"
    },
    {
      "inputs": [
        {
          "internalType": "string",
          "name": "_name",
          "type": "string"
        },
        {
          "internalType": "string",
          "name": "_bloodType",
          "type": "string"
        },
        {
          "internalType": "string",
          "name": "_organ",
          "type": "string"
        }
      ],
      "name": "registerRecipient",
      "outputs": [],
      "stateMutability": "nonpayable",
      "type": "function"
    }
  ],
  "bytecode": "0x608060405234801561001057600080fd5b50614957806100206000396000f3fe608060405234801561001057600080fd5b50600436106101a95760003560e01c806379c4264b116100f9578063c407670f11610097578063d0c187f011610071578063d0c187f0146103c2578063d12d8279146103ca578063d1bc76a1146103df578063dbea52851461040457600080fd5b8063c407670f14610393578063c4297ab01461039c578063c45d8c66146103af57600080fd5b806398e36b04116100d357806398e36b041461033e578063b3baf4a114610346578063b74513c114610369578063c17c5a451461037e57600080fd5b806379c4264b146102ef5780638651b331146102f8578063875b18451461031e57600080fd5b80634abfa1631161016657806373d55d0b1161014057806373d55d0b1461029c5780637469fb17146102a5578063752f33b8146102b857806378b770b2146102cb57600080fd5b80634abfa1631461024d578063525a40a1146102745780635daca7621461028957600080fd5b8063016ca209146101ae57806308987556146101c357806322eabb8e146101ec5780632590215514610203578063310d33aa146102315780634768d4ef1461023a575b600080fd5b6101c16101bc366004613dc5565b61040d565b005b6101d66101d1366004613e4c565b610587565b6040516101e39190613eab565b60405180910390f35b6101f560015481565b6040519081526020016101e3565b610216610211366004613e4c565b610cd0565b604080519384526020840192909252908201526060016101e3565b6101f560085481565b610216610248366004613e4c565b610d03565b61026061025b366004613e4c565b610d13565b6040516101e3989796959493929190613f7a565b61027c610f7a565b6040516101e39190613ff3565b6101c161029736600461408e565b6111bb565b6101f560065481565b6101c16102b33660046140b0565b6113d9565b6101c16102c636600461408e565b61152a565b6102de6102d9366004613e4c565b6117ac565b6040516101e3959493929190614113565b6101f560025481565b61030b610306366004613e4c565b6118f1565b6040516101e39796959493929190614158565b61033161032c366004613e4c565b611aca565b6040516101e391906141b9565b6103316123c2565b6103596103543660046140b0565b6126fd565b60405190151581526020016101e3565b610371612e1a565b6040516101e391906142a0565b6103866130ee565b6040516101e39190614356565b6101f560005481565b6101c16103aa3660046143b8565b6131eb565b6101c16103bd366004614449565b6133a4565b6101d6613598565b6103d261387d565b6040516101e391906144ff565b6103f26103ed366004613e4c565b61397a565b6040516101e396959493929190614555565b6101f560075481565b61041683613b4d565b61047a5760405162461bcd60e51b815260206004820152602a60248201527f526563697069656e74206e616d6520616c72656164792065786973747320286f6044820152697267616e20666c6f772960b01b60648201526084015b60405180910390fd5b6001805490600061048a836145c5565b90915550506040805160c0810182526001805480835260208084018881528486018890526060850187905260808501849052600060a086018190529283526004909152939020825181559251919291908201906104e79082614661565b50604082015160028201906104fc9082614661565b50606082015160038201906105119082614661565b5060808201516004909101805460a09093015115156101000261ff00199215159290921661ffff19909316929092171790556001546040517f96dc20c38c1f0ed51b56b93691a1959f676a7d0092aa8ad5dc8121a69d60cbee9161057a91869086908690614720565b60405180910390a1505050565b6000818152600a60209081526040808320815160a081019092528054825260018101805460609594840191906105bc906145de565b80601f01602080910402602001604051908101604052809291908181526020018280546105e8906145de565b80156106355780601f1061060a57610100808354040283529160200191610635565b820191906000526020600020905b81548152906001019060200180831161061857829003601f168201915b5050505050815260200160028201805461064e906145de565b80601f016020809104026020016040519081016040528092919081815260200182805461067a906145de565b80156106c75780601f1061069c576101008083540402835291602001916106c7565b820191906000526020600020905b8154815290600101906020018083116106aa57829003601f168201915b50505091835250506003919091015460ff8082161515602084015261010090910416151560409091015260608101519091506107155760405162461bcd60e51b81526004016104719061476a565b8060800151156107375760405162461bcd60e51b815260040161047190614797565b600060015b60065481116109a5576000600960008381526020019081526020016000206040518060e00160405290816000820154815260200160018201805461077f906145de565b80601f01602080910402602001604051908101604052809291908181526020018280546107ab906145de565b80156107f85780601f106107cd576101008083540402835291602001916107f8565b820191906000526020600020905b8154815290600101906020018083116107db57829003601f168201915b50505050508152602001600282018054610811906145de565b80601f016020809104026020016040519081016040528092919081815260200182805461083d906145de565b801561088a5780601f1061085f5761010080835404028352916020019161088a565b820191906000526020600020905b81548152906001019060200180831161086d57829003601f168201915b50505050508152602001600382015481526020016004820180546108ad906145de565b80601f01602080910402602001604051908101604052809291908181526020018280546108d9906145de565b80156109265780601f106108fb57610100808354040283529160200191610926565b820191906000526020600020905b81548152906001019060200180831161090957829003601f168201915b50505091835250506005919091015460ff8082161515602084015261010090910416151560409091015260a0810151909150801561096657508060c00151155b801561097f575061097f816040015185604001516126fd565b15610992578261098e816145c5565b9350505b508061099d816145c5565b91505061073c565b506000816001600160401b038111156109c0576109c0613d23565b604051908082528060200260200182016040528015610a3557816020015b610a226040518060e0016040528060008152602001606081526020016060815260200160008152602001606081526020016000151581526020016000151581525090565b8152602001906001900390816109de5790505b509050600060015b6006548111610cc5576000600960008381526020019081526020016000206040518060e001604052908160008201548152602001600182018054610a80906145de565b80601f0160208091040260200160405190810160405280929190818152602001828054610aac906145de565b8015610af95780601f10610ace57610100808354040283529160200191610af9565b820191906000526020600020905b815481529060010190602001808311610adc57829003601f168201915b50505050508152602001600282018054610b12906145de565b80601f0160208091040260200160405190810160405280929190818152602001828054610b3e906145de565b8015610b8b5780601f10610b6057610100808354040283529160200191610b8b565b820191906000526020600020905b815481529060010190602001808311610b6e57829003601f168201915b5050505050815260200160038201548152602001600482018054610bae906145de565b80601f0160208091040260200160405190810160405280929190818152602001828054610bda906145de565b8015610c275780601f10610bfc57610100808354040283529160200191610c27565b820191906000526020600020905b815481529060010190602001808311610c0a57829003601f168201915b50505091835250506005919091015460ff8082161515602084015261010090910416151560409091015260a08101519091508015610c6757508060c00151155b8015610c805750610c80816040015187604001516126fd565b15610cb25780848481518110610c9857610c986147ce565b60200260200101819052508280610cae906145c5565b9350505b5080610cbd816145c5565b915050610a3d565b509095945050505050565b600b8181548110610ce057600080fd5b600091825260209091206003909102018054600182015460029092015490925083565b60058181548110610ce057600080fd5b60036020526000908152604090208054600182018054919291610d35906145de565b80601f0160208091040260200160405190810160405280929190818152602001828054610d61906145de565b8015610dae5780601f10610d8357610100808354040283529160200191610dae565b820191906000526020600020905b815481529060010190602001808311610d9157829003601f168201915b505050505090806002018054610dc3906145de565b80601f0160208091040260200160405190810160405280929190818152602001828054610def906145de565b8015610e3c5780601f10610e1157610100808354040283529160200191610e3c565b820191906000526020600020905b815481529060010190602001808311610e1f57829003601f168201915b505050505090806003018054610e51906145de565b80601f0160208091040260200160405190810160405280929190818152602001828054610e7d906145de565b8015610eca5780601f10610e9f57610100808354040283529160200191610eca565b820191906000526020600020905b815481529060010190602001808311610ead57829003601f168201915b505050505090806004015490806005018054610ee5906145de565b80601f0160208091040260200160405190810160405280929190818152602001828054610f11906145de565b8015610f5e5780601f10610f3357610100808354040283529160200191610f5e565b820191906000526020600020905b815481529060010190602001808311610f4157829003601f168201915b5050506006909301549192505060ff8082169161010090041688565b606060006007546001600160401b03811115610f9857610f98613d23565b604051908082528060200260200182016040528015610fff57816020015b610fec6040518060a001604052806000815260200160608152602001606081526020016000151581526020016000151581525090565b815260200190600190039081610fb65790505b50905060015b60075481116111b557600a60008281526020019081526020016000206040518060a001604052908160008201548152602001600182018054611046906145de565b80601f0160208091040260200160405190810160405280929190818152602001828054611072906145de565b80156110bf5780601f10611094576101008083540402835291602001916110bf565b820191906000526020600020905b8154815290600101906020018083116110a257829003601f168201915b505050505081526020016002820180546110d8906145de565b80601f0160208091040260200160405190810160405280929190818152602001828054611104906145de565b80156111515780601f1061112657610100808354040283529160200191611151565b820191906000526020600020905b81548152906001019060200180831161113457829003601f168201915b50505091835250506003919091015460ff80821615156020840152610100909104161515604090910152826111876001846147e4565b81518110611197576111976147ce565b602002602001018190525080806111ad906145c5565b915050611005565b50919050565b60008281526003602090815260408083208484526004909252909120600682015460ff1661121d5760405162461bcd60e51b815260206004820152600f60248201526e111bdb9bdc881b9bdd08199bdd5b99608a1b6044820152606401610471565b600481015460ff166112415760405162461bcd60e51b81526004016104719061476a565b6006820154610100900460ff16156112935760405162461bcd60e51b8152602060048201526015602482015274111bdb9bdc88185b1c9958591e481b585d18da1959605a1b6044820152606401610471565b6004810154610100900460ff16156112bd5760405162461bcd60e51b815260040161047190614797565b60068201805461010061ff001991821681179092556004830180549091169091179055600280549060006112f0836145c5565b9091555050604080516060810182528581526020808201868152428385019081526005805460018101825560009190915293517f036b6384b5eca791c62761152d0c79bb0604c104a5fb6f4eb0703f3154bb3db060039095029485015590517f036b6384b5eca791c62761152d0c79bb0604c104a5fb6f4eb0703f3154bb3db1840155517f036b6384b5eca791c62761152d0c79bb0604c104a5fb6f4eb0703f3154bb3db29092019190915581518681529081018590527fa29c195317ce676fbbae11c2b9386d52819159b4adaa256f92dc3da60620f0b291015b60405180910390a150505050565b6113e282613bb7565b61143a5760405162461bcd60e51b815260206004820152602360248201527f426c6f6f6420726563697069656e74206e616d6520616c72656164792065786960448201526273747360e81b6064820152608401610471565b6007805490600061144a836145c5565b90915550506040805160a0810182526007548082526020808301868152838501869052600160608501819052600060808601819052938452600a90925293909120825181559251919291908201906114a29082614661565b50604082015160028201906114b79082614661565b5060608201516003909101805460809093015115156101000261ff00199215159290921661ffff19909316929092171790556007546040517fc156dd1510a63c20d449074b446a00d8b499739e912529eaf0f4f21f9a97901b9161151e91859085906147f7565b60405180910390a15050565b6000828152600960209081526040808320848452600a909252909120600582015460ff166115925760405162461bcd60e51b8152602060048201526015602482015274109b1bdbd908111bdb9bdc881b9bdd08199bdd5b99605a1b6044820152606401610471565b600381015460ff166115e65760405162461bcd60e51b815260206004820152601960248201527f426c6f6f6420526563697069656e74206e6f7420666f756e64000000000000006044820152606401610471565b6005820154610100900460ff16156116405760405162461bcd60e51b815260206004820152601b60248201527f426c6f6f6420446f6e6f7220616c7265616479206d61746368656400000000006044820152606401610471565b6003810154610100900460ff161561169a5760405162461bcd60e51b815260206004820152601f60248201527f426c6f6f6420526563697069656e7420616c7265616479206d617463686564006044820152606401610471565b60058201805461010061ff001991821681179092556003830180549091169091179055600880549060006116cd836145c5565b909155505060408051606081018252858152602080820186815242838501908152600b805460018101825560009190915293517f0175b7a638427703f0dbe7bb9bbf987a2551717b34e79f33b5b1008d1fa01db960039095029485015590517f0175b7a638427703f0dbe7bb9bbf987a2551717b34e79f33b5b1008d1fa01dba840155517f0175b7a638427703f0dbe7bb9bbf987a2551717b34e79f33b5b1008d1fa01dbb9092019190915581518681529081018590527ffcebbfed70772bcbd8e6c6bb85d69abc7606d8964305cfb92cce0b1bb3d0b10791016113cb565b600a60205260009081526040902080546001820180549192916117ce906145de565b80601f01602080910402602001604051908101604052809291908181526020018280546117fa906145de565b80156118475780601f1061181c57610100808354040283529160200191611847565b820191906000526020600020905b81548152906001019060200180831161182a57829003601f168201915b50505050509080600201805461185c906145de565b80601f0160208091040260200160405190810160405280929190818152602001828054611888906145de565b80156118d55780601f106118aa576101008083540402835291602001916118d5565b820191906000526020600020905b8154815290600101906020018083116118b857829003601f168201915b5050506003909301549192505060ff8082169161010090041685565b60096020526000908152604090208054600182018054919291611913906145de565b80601f016020809104026020016040519081016040528092919081815260200182805461193f906145de565b801561198c5780601f106119615761010080835404028352916020019161198c565b820191906000526020600020905b81548152906001019060200180831161196f57829003601f168201915b5050505050908060020180546119a1906145de565b80601f01602080910402602001604051908101604052809291908181526020018280546119cd906145de565b8015611a1a5780601f106119ef57610100808354040283529160200191611a1a565b820191906000526020600020905b8154815290600101906020018083116119fd57829003601f168201915b505050505090806003015490806004018054611a35906145de565b80601f0160208091040260200160405190810160405280929190818152602001828054611a61906145de565b8015611aae5780601f10611a8357610100808354040283529160200191611aae565b820191906000526020600020905b815481529060010190602001808311611a9157829003601f168201915b5050506005909301549192505060ff8082169161010090041687565b6000818152600460209081526040808320815160c08101909252805482526001810180546060959484019190611aff906145de565b80601f0160208091040260200160405190810160405280929190818152602001828054611b2b906145de565b8015611b785780601f10611b4d57610100808354040283529160200191611b78565b820191906000526020600020905b815481529060010190602001808311611b5b57829003601f168201915b50505050508152602001600282018054611b91906145de565b80601f0160208091040260200160405190810160405280929190818152602001828054611bbd906145de565b8015611c0a5780601f10611bdf57610100808354040283529160200191611c0a565b820191906000526020600020905b815481529060010190602001808311611bed57829003601f168201915b50505050508152602001600382018054611c23906145de565b80601f0160208091040260200160405190810160405280929190818152602001828054611c4f906145de565b8015611c9c5780601f10611c7157610100808354040283529160200191611c9c565b820191906000526020600020905b815481529060010190602001808311611c7f57829003601f168201915b50505091835250506004919091015460ff808216151560208401526101009091041615156040909101526080810151909150611cea5760405162461bcd60e51b81526004016104719061476a565b8060a0015115611d0c5760405162461bcd60e51b815260040161047190614797565b600060015b600054811161202c576000600360008381526020019081526020016000206040518061010001604052908160008201548152602001600182018054611d55906145de565b80601f0160208091040260200160405190810160405280929190818152602001828054611d81906145de565b8015611dce5780601f10611da357610100808354040283529160200191611dce565b820191906000526020600020905b815481529060010190602001808311611db157829003601f168201915b50505050508152602001600282018054611de7906145de565b80601f0160208091040260200160405190810160405280929190818152602001828054611e13906145de565b8015611e605780601f10611e3557610100808354040283529160200191611e60565b820191906000526020600020905b815481529060010190602001808311611e4357829003601f168201915b50505050508152602001600382018054611e79906145de565b80601f0160208091040260200160405190810160405280929190818152602001828054611ea5906145de565b8015611ef25780601f10611ec757610100808354040283529160200191611ef2565b820191906000526020600020905b815481529060010190602001808311611ed557829003601f168201915b5050505050815260200160048201548152602001600582018054611f15906145de565b80601f0160208091040260200160405190810160405280929190818152602001828054611f41906145de565b8015611f8e5780601f10611f6357610100808354040283529160200191611f8e565b820191906000526020600020905b815481529060010190602001808311611f7157829003601f168201915b50505091835250506006919091015460ff8082161515602084015261010090910416151560409091015260c08101519091508015611fce57508060e00151155b8015611fef5750836060015180519060200120816060015180519060200120145b1561201957612006816040015185604001516126fd565b156120195782612015816145c5565b9350505b5080612024816145c5565b915050611d11565b506000816001600160401b0381111561204757612047613d23565b60405190808252806020026020018201604052801561208057816020015b61206d613cda565b8152602001906001900390816120655790505b509050600060015b6000548111610cc55760006003600083815260200190815260200160002060405180610100016040529081600082015481526020016001820180546120cc906145de565b80601f01602080910402602001604051908101604052809291908181526020018280546120f8906145de565b80156121455780601f1061211a57610100808354040283529160200191612145565b820191906000526020600020905b81548152906001019060200180831161212857829003601f168201915b5050505050815260200160028201805461215e906145de565b80601f016020809104026020016040519081016040528092919081815260200182805461218a906145de565b80156121d75780601f106121ac576101008083540402835291602001916121d7565b820191906000526020600020905b8154815290600101906020018083116121ba57829003601f168201915b505050505081526020016003820180546121f0906145de565b80601f016020809104026020016040519081016040528092919081815260200182805461221c906145de565b80156122695780601f1061223e57610100808354040283529160200191612269565b820191906000526020600020905b81548152906001019060200180831161224c57829003601f168201915b505050505081526020016004820154815260200160058201805461228c906145de565b80601f01602080910402602001604051908101604052809291908181526020018280546122b8906145de565b80156123055780601f106122da57610100808354040283529160200191612305565b820191906000526020600020905b8154815290600101906020018083116122e857829003601f168201915b50505091835250506006919091015460ff8082161515602084015261010090910416151560409091015260c0810151909150801561234557508060e00151155b80156123665750856060015180519060200120816060015180519060200120145b156123af5761237d816040015187604001516126fd565b156123af5780848481518110612395576123956147ce565b602002602001018190525082806123ab906145c5565b9350505b50806123ba816145c5565b915050612088565b6060600080546001600160401b038111156123df576123df613d23565b60405190808252806020026020018201604052801561241857816020015b612405613cda565b8152602001906001900390816123fd5790505b50905060015b60005481116111b557600360008281526020019081526020016000206040518061010001604052908160008201548152602001600182018054612460906145de565b80601f016020809104026020016040519081016040528092919081815260200182805461248c906145de565b80156124d95780601f106124ae576101008083540402835291602001916124d9565b820191906000526020600020905b8154815290600101906020018083116124bc57829003601f168201915b505050505081526020016002820180546124f2906145de565b80601f016020809104026020016040519081016040528092919081815260200182805461251e906145de565b801561256b5780601f106125405761010080835404028352916020019161256b565b820191906000526020600020905b81548152906001019060200180831161254e57829003601f168201915b50505050508152602001600382018054612584906145de565b80601f01602080910402602001604051908101604052809291908181526020018280546125b0906145de565b80156125fd5780601f106125d2576101008083540402835291602001916125fd565b820191906000526020600020905b8154815290600101906020018083116125e057829003601f168201915b5050505050815260200160048201548152602001600582018054612620906145de565b80601f016020809104026020016040519081016040528092919081815260200182805461264c906145de565b80156126995780601f1061266e57610100808354040283529160200191612699565b820191906000526020600020905b81548152906001019060200180831161267c57829003601f168201915b50505091835250506006919091015460ff80821615156020840152610100909104161515604090910152826126cf6001846147e4565b815181106126df576126df6147ce565b602002602001018190525080806126f5906145c5565b91505061241e565b6000818051906020012083805190602001200361271c57506001612e14565b6040805180820190915260028152614f2d60f01b6020918201528351908401207f24ee4dfd51ea61da0c7e24c25c8c8d13195e7f61972e3f3ce41c702aef172bdd0161276a57506001612e14565b60408051808201909152600381526241422b60e81b6020918201528251908301207fe069aaba111c183a1fde677842e779bedeab6cff9e204992bbb1c54a2a1da06f016127b957506001612e14565b6040805180820190915260028152614f2b60f01b6020918201528351908401207f68d9102d0ebbae68a1c3fc621b2fbfc6053186381a836dac1fc852ddc7fd9abd01612912576040805180820190915260028152614f2b60f01b6020918201528251908301207f9726efd2f14451975e3c039de4d04039face79c7e57c9253e037ad2238026543148061288a5750604080518082019091526002815261412b60f01b6020918201528251908301207fbc8ad4fa23449205da10b2a086888a16aae2ac121f166bdaf18384f01c5a1923145b806128d35750604080518082019091526002815261422b60f01b6020918201528251908301207f5c824a22c75ee3364219136d475a54e97a9ddcf1807f4545222958ac4dbabbbc145b8061290b575060408051808201909152600381526241422b60e81b602091820152825190830120600080516020614902833981519152145b9050612e14565b604080518082019091526002815261412d60f01b6020918201528351908401207f208b8929e4e5ea98de45d81e54fcdf9a9f71a0bf871fda9235a486110366d49401612a6957604080518082019091526002815261412d60f01b6020918201528251908301207fdf7476d61b1a156721ba27e1ab032065608e5f4078e0256dca5b79eefc992b6c14806129e35750604080518082019091526002815261412b60f01b6020918201528251908301207fbc8ad4fa23449205da10b2a086888a16aae2ac121f166bdaf18384f01c5a1923145b806128d3575060408051808201909152600381526241422d60e81b6020918201528251908301207f039622a8de431d550cd225238681ea4fc4c3027c40ae1a6c418d871345bb2775148061290b57505060408051808201909152600381526241422b60e81b60209182015281519082012060008051602061490283398151915214612e14565b604080518082019091526002815261422d60f01b6020918201528351908401207ff836b55b5ff6c3e429a77fd5b918323c14ec7faf3a6a8e5e23e3118e5c74424301612bbf57604080518082019091526002815261422d60f01b6020918201528251908301207f07c94aa4a0093c1bd658802a46e7cdc3eb138050c59571a1dc1cee71a38bbdbd14806129e35750604080518082019091526002815261422b60f01b6020918201528251908301207f5c824a22c75ee3364219136d475a54e97a9ddcf1807f4545222958ac4dbabbbc14806128d3575060408051808201909152600381526241422d60e81b6020918201528251908301207f039622a8de431d550cd225238681ea4fc4c3027c40ae1a6c418d871345bb2775148061290b57505060408051808201909152600381526241422b60e81b60209182015281519082012060008051602061490283398151915214612e14565b60408051808201909152600381526241422d60e81b6020918201528351908401207ffc69dd5721bce2aaf32ddadc797e15b03b3cfd83bf51e593be7278ecba44d88b01612c865760408051808201909152600381526241422d60e81b6020918201528251908301207f039622a8de431d550cd225238681ea4fc4c3027c40ae1a6c418d871345bb2775148061290b57505060408051808201909152600381526241422b60e81b60209182015281519082012060008051602061490283398151915214612e14565b604080518082019091526002815261412b60f01b6020918201528351908401207f43752b05dcbb6dfa25ef4d5f797775e9551d53ede0e994250e7c7b0fe3a5e6dd01612d4b57604080518082019091526002815261412b60f01b6020918201528251908301207fbc8ad4fa23449205da10b2a086888a16aae2ac121f166bdaf18384f01c5a1923148061290b57505060408051808201909152600381526241422b60e81b60209182015281519082012060008051602061490283398151915214612e14565b604080518082019091526002815261422b60f01b6020918201528351908401207fa37db5dd38a11cc9bde6ec92b8a5ab168562230e7f80babaddd6a753b245444401612e1057604080518082019091526002815261422b60f01b6020918201528251908301207f5c824a22c75ee3364219136d475a54e97a9ddcf1807f4545222958ac4dbabbbc148061290b57505060408051808201909152600381526241422b60e81b60209182015281519082012060008051602061490283398151915214612e14565b5060005b92915050565b606060006001546001600160401b03811115612e3857612e38613d23565b604051908082528060200260200182016040528015612ea657816020015b612e936040518060c00160405280600081526020016060815260200160608152602001606081526020016000151581526020016000151581525090565b815260200190600190039081612e565790505b50905060015b60015481116111b557600460008281526020019081526020016000206040518060c001604052908160008201548152602001600182018054612eed906145de565b80601f0160208091040260200160405190810160405280929190818152602001828054612f19906145de565b8015612f665780601f10612f3b57610100808354040283529160200191612f66565b820191906000526020600020905b815481529060010190602001808311612f4957829003601f168201915b50505050508152602001600282018054612f7f906145de565b80601f0160208091040260200160405190810160405280929190818152602001828054612fab906145de565b8015612ff85780601f10612fcd57610100808354040283529160200191612ff8565b820191906000526020600020905b815481529060010190602001808311612fdb57829003601f168201915b50505050508152602001600382018054613011906145de565b80601f016020809104026020016040519081016040528092919081815260200182805461303d906145de565b801561308a5780601f1061305f5761010080835404028352916020019161308a565b820191906000526020600020905b81548152906001019060200180831161306d57829003601f168201915b50505091835250506004919091015460ff80821615156020840152610100909104161515604090910152826130c06001846147e4565b815181106130d0576130d06147ce565b602002602001018190525080806130e6906145c5565b915050612eac565b606060006002546001600160401b0381111561310c5761310c613d23565b60405190808252806020026020018201604052801561316157816020015b61314e60405180606001604052806000815260200160008152602001600081525090565b81526020019060019003908161312a5790505b50905060005b6002548110156111b55760058181548110613184576131846147ce565b906000526020600020906003020160405180606001604052908160008201548152602001600182015481526020016002820154815250508282815181106131cd576131cd6147ce565b602002602001018190525080806131e3906145c5565b915050613167565b600081511161323c5760405162461bcd60e51b815260206004820152601a60248201527f446f63746f72207265706f72742055524c2072657175697265640000000000006044820152606401610471565b61324584613c18565b6132915760405162461bcd60e51b815260206004820152601f60248201527f426c6f6f6420646f6e6f72206e616d6520616c726561647920657869737473006044820152606401610471565b600680549060006132a1836145c5565b90915550506040805160e08101825260065480825260208083018881528385018890526060840187905260808401869052600160a08501819052600060c08601819052938452600990925293909120825181559251919291908201906133079082614661565b506040820151600282019061331c9082614661565b50606082015160038201556080820151600482019061333b9082614661565b5060a08201516005909101805460c09093015115156101000261ff00199215159290921661ffff19909316929092171790556006546040517f246c8e1e9c29ccf35af8d371d95827432e6e2d9fd0953064c46e0f13d2ded8c0916113cb91879087908690614720565b60008151116133f55760405162461bcd60e51b815260206004820152601a60248201527f446f63746f72207265706f72742055524c2072657175697265640000000000006044820152606401610471565b6133fe85613c79565b6134595760405162461bcd60e51b815260206004820152602660248201527f446f6e6f72206e616d6520616c72656164792065786973747320286f7267616e60448201526520666c6f772960d01b6064820152608401610471565b600080549080613468836145c5565b909155505060408051610100810182526000805480835260208084018a81528486018a9052606085018990526080850188905260a08501879052600160c0860181905260e08601859052928452600390915293909120825181559251919291908201906134d59082614661565b50604082015160028201906134ea9082614661565b50606082015160038201906134ff9082614661565b506080820151600482015560a0820151600582019061351e9082614661565b5060c08201516006909101805460e09093015115156101000261ff00199215159290921661ffff19909316929092171790556000546040517f59ba47ae6320c1235490c05ed7e57518cd6afeabb3f09376b2b8417faeba606d9161358991889088908890879061482c565b60405180910390a15050505050565b606060006006546001600160401b038111156135b6576135b6613d23565b60405190808252806020026020018201604052801561362b57816020015b6136186040518060e0016040528060008152602001606081526020016060815260200160008152602001606081526020016000151581526020016000151581525090565b8152602001906001900390816135d45790505b50905060015b60065481116111b557600960008281526020019081526020016000206040518060e001604052908160008201548152602001600182018054613672906145de565b80601f016020809104026020016040519081016040528092919081815260200182805461369e906145de565b80156136eb5780601f106136c0576101008083540402835291602001916136eb565b820191906000526020600020905b8154815290600101906020018083116136ce57829003601f168201915b50505050508152602001600282018054613704906145de565b80601f0160208091040260200160405190810160405280929190818152602001828054613730906145de565b801561377d5780601f106137525761010080835404028352916020019161377d565b820191906000526020600020905b81548152906001019060200180831161376057829003601f168201915b50505050508152602001600382015481526020016004820180546137a0906145de565b80601f01602080910402602001604051908101604052809291908181526020018280546137cc906145de565b80156138195780601f106137ee57610100808354040283529160200191613819565b820191906000526020600020905b8154815290600101906020018083116137fc57829003601f168201915b50505091835250506005919091015460ff808216151560208401526101009091041615156040909101528261384f6001846147e4565b8151811061385f5761385f6147ce565b60200260200101819052508080613875906145c5565b915050613631565b606060006008546001600160401b0381111561389b5761389b613d23565b6040519080825280602002602001820160405280156138f057816020015b6138dd60405180606001604052806000815260200160008152602001600081525090565b8152602001906001900390816138b95790505b50905060005b6008548110156111b557600b8181548110613913576139136147ce565b9060005260206000209060030201604051806060016040529081600082015481526020016001820154815260200160028201548152505082828151811061395c5761395c6147ce565b60200260200101819052508080613972906145c5565b9150506138f6565b6004602052600090815260409020805460018201805491929161399c906145de565b80601f01602080910402602001604051908101604052809291908181526020018280546139c8906145de565b8015613a155780601f106139ea57610100808354040283529160200191613a15565b820191906000526020600020905b8154815290600101906020018083116139f857829003601f168201915b505050505090806002018054613a2a906145de565b80601f0160208091040260200160405190810160405280929190818152602001828054613a56906145de565b8015613aa35780601f10613a7857610100808354040283529160200191613aa3565b820191906000526020600020905b815481529060010190602001808311613a8657829003601f168201915b505050505090806003018054613ab8906145de565b80601f0160208091040260200160405190810160405280929190818152602001828054613ae4906145de565b8015613b315780601f10613b0657610100808354040283529160200191613b31565b820191906000526020600020905b815481529060010190602001808311613b1457829003601f168201915b5050506004909301549192505060ff8082169161010090041686565b600060015b6001548111613bae57828051906020012060046000838152602001908152602001600020600101604051613b86919061488b565b604051809103902003613b9c5750600092915050565b80613ba6816145c5565b915050613b52565b50600192915050565b600060015b6007548111613bae578280519060200120600a6000838152602001908152602001600020600101604051613bf0919061488b565b604051809103902003613c065750600092915050565b80613c10816145c5565b915050613bbc565b600060015b6006548111613bae57828051906020012060096000838152602001908152602001600020600101604051613c51919061488b565b604051809103902003613c675750600092915050565b80613c71816145c5565b915050613c1d565b600060015b6000548111613bae57828051906020012060036000838152602001908152602001600020600101604051613cb2919061488b565b604051809103902003613cc85750600092915050565b80613cd2816145c5565b915050613c7e565b6040518061010001604052806000815260200160608152602001606081526020016060815260200160008152602001606081526020016000151581526020016000151581525090565b634e487b7160e01b600052604160045260246000fd5b600082601f830112613d4a57600080fd5b81356001600160401b0380821115613d6457613d64613d23565b604051601f8301601f19908116603f01168101908282118183101715613d8c57613d8c613d23565b81604052838152866020858801011115613da557600080fd5b836020870160208301376000602085830101528094505050505092915050565b600080600060608486031215613dda57600080fd5b83356001600160401b0380821115613df157600080fd5b613dfd87838801613d39565b94506020860135915080821115613e1357600080fd5b613e1f87838801613d39565b93506040860135915080821115613e3557600080fd5b50613e4286828701613d39565b9150509250925092565b600060208284031215613e5e57600080fd5b5035919050565b6000815180845260005b81811015613e8b57602081850181015186830182015201613e6f565b506000602082860101526020601f19601f83011685010191505092915050565b60006020808301818452808551808352604092508286019150828160051b87010184880160005b83811015613f6c57603f19898403018552815160e08151855288820151818a870152613f0082870182613e65565b9150508782015185820389870152613f188282613e65565b915050606080830151818701525060808083015186830382880152613f3d8382613e65565b60a08581015115159089015260c094850151151594909701939093525050509386019390860190600101613ed2565b509098975050505050505050565b60006101008a8352806020840152613f948184018b613e65565b90508281036040840152613fa8818a613e65565b90508281036060840152613fbc8189613e65565b905086608084015282810360a0840152613fd68187613e65565b94151560c0840152505090151560e0909101529695505050505050565b60006020808301818452808551808352604092508286019150828160051b87010184880160005b83811015613f6c57603f19898403018552815160a08151855288820151818a87015261404882870182613e65565b91505087820151858203898701526140608282613e65565b606084810151151590880152608093840151151593909601929092525050938601939086019060010161401a565b600080604083850312156140a157600080fd5b50508035926020909101359150565b600080604083850312156140c357600080fd5b82356001600160401b03808211156140da57600080fd5b6140e686838701613d39565b935060208501359150808211156140fc57600080fd5b5061410985828601613d39565b9150509250929050565b85815260a06020820152600061412c60a0830187613e65565b828103604084015261413e8187613e65565b941515606084015250509015156080909101529392505050565b87815260e06020820152600061417160e0830189613e65565b82810360408401526141838189613e65565b9050866060840152828103608084015261419d8187613e65565b94151560a0840152505090151560c09091015295945050505050565b60006020808301818452808551808352604092508286019150828160051b87010184880160005b83811015613f6c57603f1989840301855281516101008151855288820151818a87015261420f82870182613e65565b91505087820151858203898701526142278282613e65565b915050606080830151868303828801526142418382613e65565b92505050608080830151818701525060a080830151868303828801526142678382613e65565b9250505060c08083015161427e8288018215159052565b505060e0918201511515949091019390935293860193908601906001016141e0565b60006020808301818452808551808352604092508286019150828160051b87010184880160005b83811015613f6c57603f19898403018552815160c08151855288820151818a8701526142f582870182613e65565b915050878201518582038987015261430d8282613e65565b915050606080830151868303828801526143278382613e65565b60808581015115159089015260a0948501511515949097019390935250505093860193908601906001016142c7565b6020808252825182820181905260009190848201906040850190845b818110156143ac576143998385518051825260208082015190830152604090810151910152565b9284019260609290920191600101614372565b50909695505050505050565b600080600080608085870312156143ce57600080fd5b84356001600160401b03808211156143e557600080fd5b6143f188838901613d39565b9550602087013591508082111561440757600080fd5b61441388838901613d39565b945060408701359350606087013591508082111561443057600080fd5b5061443d87828801613d39565b91505092959194509250565b600080600080600060a0868803121561446157600080fd5b85356001600160401b038082111561447857600080fd5b61448489838a01613d39565b9650602088013591508082111561449a57600080fd5b6144a689838a01613d39565b955060408801359150808211156144bc57600080fd5b6144c889838a01613d39565b94506060880135935060808801359150808211156144e557600080fd5b506144f288828901613d39565b9150509295509295909350565b6020808252825182820181905260009190848201906040850190845b818110156143ac576145428385518051825260208082015190830152604090810151910152565b928401926060929092019160010161451b565b86815260c06020820152600061456e60c0830188613e65565b82810360408401526145808188613e65565b905082810360608401526145948187613e65565b9415156080840152505090151560a090910152949350505050565b634e487b7160e01b600052601160045260246000fd5b6000600182016145d7576145d76145af565b5060010190565b600181811c908216806145f257607f821691505b6020821081036111b557634e487b7160e01b600052602260045260246000fd5b601f82111561465c57600081815260208120601f850160051c810160208610156146395750805b601f850160051c820191505b8181101561465857828155600101614645565b5050505b505050565b81516001600160401b0381111561467a5761467a613d23565b61468e8161468884546145de565b84614612565b602080601f8311600181146146c357600084156146ab5750858301515b600019600386901b1c1916600185901b178555614658565b600085815260208120601f198616915b828110156146f2578886015182559484019460019091019084016146d3565b50858210156147105787850151600019600388901b60f8161c191681555b5050505050600190811b01905550565b8481526080602082015260006147396080830186613e65565b828103604084015261474b8186613e65565b9050828103606084015261475f8185613e65565b979650505050505050565b602080825260139082015272149958da5c1a595b9d081b9bdd08199bdd5b99606a1b604082015260600190565b60208082526019908201527f526563697069656e7420616c7265616479206d61746368656400000000000000604082015260600190565b634e487b7160e01b600052603260045260246000fd5b81810381811115612e1457612e146145af565b8381526060602082015260006148106060830185613e65565b82810360408401526148228185613e65565b9695505050505050565b85815260a06020820152600061484560a0830187613e65565b82810360408401526148578187613e65565b9050828103606084015261486b8186613e65565b9050828103608084015261487f8185613e65565b98975050505050505050565b6000808354614899816145de565b600182811680156148b157600181146148c6576148f5565b60ff19841687528215158302870194506148f5565b8760005260208060002060005b858110156148ec5781548a8201529084019082016148d3565b50505082870194505b5092969550505050505056fe1f965545eee3e7c5e0219887bd1886412154930061dfb66d444e3ab5d5e25f91a2646970667358221220ae96913f8d3d4bad7d6fb38376e39bf41d10aaaaff8ccbc85e088a25e53ed53864736f6c63430008140033",
  "linkReferences": {},
  "deployedLinkReferences": {}
}